{
  "_format": "hh-sol-artifact-1",
  "contractName": "WavePortal",
  "sourceName": "contracts/WavePortal.sol",
  "abi": [
    {
      "inputs": [],
      "stateMutability": "payable",
      "type": "constructor"
    },
    {
      "anonymous": false,
      "inputs": [
        {
          "indexed": true,
          "internalType": "address",
          "name": "from",
          "type": "address"
        },
        {
          "indexed": false,
          "internalType": "uint256",
          "name": "timestamp",
          "type": "uint256"
        },
        {
          "indexed": false,
          "internalType": "string",
          "name": "message",
          "type": "string"
        }
      ],
      "name": "NewWave",
      "type": "event"
    },
    {
      "inputs": [],
      "name": "getAllWaves",
      "outputs": [
        {
          "components": [
            {
              "internalType": "address",
              "name": "waver",
              "type": "address"
            },
            {
              "internalType": "string",
              "name": "message",
              "type": "string"
            },
            {
              "internalType": "uint256",
              "name": "timestamp",
              "type": "uint256"
            }
          ],
          "internalType": "struct WavePortal.Wave[]",
          "name": "",
          "type": "tuple[]"
        }
      ],
      "stateMutability": "view",
      "type": "function"
    },
    {
      "inputs": [],
      "name": "getTotalWaves",
      "outputs": [
        {
          "internalType": "uint256",
          "name": "",
          "type": "uint256"
        }
      ],
      "stateMutability": "view",
      "type": "function"
    },
    {
      "inputs": [
        {
          "internalType": "string",
          "name": "_message",
          "type": "string"
        }
      ],
      "name": "wave",
      "outputs": [],
      "stateMutability": "nonpayable",
      "type": "function"
    }
  ],
  "bytecode": "0x60806040526200004f6040518060400160405280601c81526020017f57617665506f7274616c202d20536d61727420436f6e747261637421000000008152506200005560201b620004ae1760201c565b620001e9565b620000f5816040516024016200006c9190620001c5565b6040516020818303038152906040527f41304fac000000000000000000000000000000000000000000000000000000007bffffffffffffffffffffffffffffffffffffffffffffffffffffffff19166020820180517bffffffffffffffffffffffffffffffffffffffffffffffffffffffff8381831617835250505050620000f860201b60201c565b50565b60008151905060006a636f6e736f6c652e6c6f679050602083016000808483855afa5050505050565b600081519050919050565b600082825260208201905092915050565b60005b838110156200015d57808201518184015260208101905062000140565b838111156200016d576000848401525b50505050565b6000601f19601f8301169050919050565b6000620001918262000121565b6200019d81856200012c565b9350620001af8185602086016200013d565b620001ba8162000173565b840191505092915050565b60006020820190508181036000830152620001e1818462000184565b905092915050565b610ed780620001f96000396000f3fe608060405234801561001057600080fd5b50600436106100415760003560e01c8063449d46c0146100465780639a2cdc0814610062578063bd43a90814610080575b600080fd5b610060600480360381019061005b91906108a8565b61009e565b005b61006a610312565b604051610077919061090a565b60405180910390f35b61008861035d565b6040516100959190610b0f565b60405180910390f35b60016000808282546100b09190610b60565b925050819055506100f76040518060400160405280601681526020017f257320776176656420772f206d657373616765202573000000000000000000008152503383610547565b600160405180606001604052803373ffffffffffffffffffffffffffffffffffffffff16815260200183815260200142815250908060018154018082558091505060019003906000526020600020906003020160009091909190915060008201518160000160006101000a81548173ffffffffffffffffffffffffffffffffffffffff021916908373ffffffffffffffffffffffffffffffffffffffff16021790555060208201518160010190805190602001906101b69291906106ab565b506040820151816002015550503373ffffffffffffffffffffffffffffffffffffffff167f5f7e16dc676677766a70e9c5628aa6c54ddb8b6e5188e2ae1e1f17f1ffbea716428360405161020b929190610c00565b60405180910390a26000655af3107a4000905047811115610261576040517f08c379a000000000000000000000000000000000000000000000000000000000815260040161025890610ca2565b60405180910390fd5b60003373ffffffffffffffffffffffffffffffffffffffff168260405161028790610cf3565b60006040518083038185875af1925050503d80600081146102c4576040519150601f19603f3d011682016040523d82523d6000602084013e6102c9565b606091505b505090508061030d576040517f08c379a000000000000000000000000000000000000000000000000000000000815260040161030490610d7a565b60405180910390fd5b505050565b60006103556040518060400160405280601781526020017f5765206861766520256420746f74616c207761766573210000000000000000008152506000546105e6565b600054905090565b60606001805480602002602001604051908101604052809291908181526020016000905b828210156104a557838290600052602060002090600302016040518060600160405290816000820160009054906101000a900473ffffffffffffffffffffffffffffffffffffffff1673ffffffffffffffffffffffffffffffffffffffff1673ffffffffffffffffffffffffffffffffffffffff16815260200160018201805461040a90610dc9565b80601f016020809104026020016040519081016040528092919081815260200182805461043690610dc9565b80156104835780601f1061045857610100808354040283529160200191610483565b820191906000526020600020905b81548152906001019060200180831161046657829003601f168201915b5050505050815260200160028201548152505081526020019060010190610381565b50505050905090565b610544816040516024016104c29190610dfb565b6040516020818303038152906040527f41304fac000000000000000000000000000000000000000000000000000000007bffffffffffffffffffffffffffffffffffffffffffffffffffffffff19166020820180517bffffffffffffffffffffffffffffffffffffffffffffffffffffffff8381831617835250505050610682565b50565b6105e183838360405160240161055f93929190610e2c565b6040516020818303038152906040527fe0e9ad4f000000000000000000000000000000000000000000000000000000007bffffffffffffffffffffffffffffffffffffffffffffffffffffffff19166020820180517bffffffffffffffffffffffffffffffffffffffffffffffffffffffff8381831617835250505050610682565b505050565b61067e82826040516024016105fc929190610e71565b6040516020818303038152906040527fb60e72cc000000000000000000000000000000000000000000000000000000007bffffffffffffffffffffffffffffffffffffffffffffffffffffffff19166020820180517bffffffffffffffffffffffffffffffffffffffffffffffffffffffff8381831617835250505050610682565b5050565b60008151905060006a636f6e736f6c652e6c6f679050602083016000808483855afa5050505050565b8280546106b790610dc9565b90600052602060002090601f0160209004810192826106d95760008555610720565b82601f106106f257805160ff1916838001178555610720565b82800160010185558215610720579182015b8281111561071f578251825591602001919060010190610704565b5b50905061072d9190610731565b5090565b5b8082111561074a576000816000905550600101610732565b5090565b6000604051905090565b600080fd5b600080fd5b600080fd5b600080fd5b6000601f19601f8301169050919050565b7f4e487b7100000000000000000000000000000000000000000000000000000000600052604160045260246000fd5b6107b58261076c565b810181811067ffffffffffffffff821117156107d4576107d361077d565b5b80604052505050565b60006107e761074e565b90506107f382826107ac565b919050565b600067ffffffffffffffff8211156108135761081261077d565b5b61081c8261076c565b9050602081019050919050565b82818337600083830152505050565b600061084b610846846107f8565b6107dd565b90508281526020810184848401111561086757610866610767565b5b610872848285610829565b509392505050565b600082601f83011261088f5761088e610762565b5b813561089f848260208601610838565b91505092915050565b6000602082840312156108be576108bd610758565b5b600082013567ffffffffffffffff8111156108dc576108db61075d565b5b6108e88482850161087a565b91505092915050565b6000819050919050565b610904816108f1565b82525050565b600060208201905061091f60008301846108fb565b92915050565b600081519050919050565b600082825260208201905092915050565b6000819050602082019050919050565b600073ffffffffffffffffffffffffffffffffffffffff82169050919050565b600061097c82610951565b9050919050565b61098c81610971565b82525050565b600081519050919050565b600082825260208201905092915050565b60005b838110156109cc5780820151818401526020810190506109b1565b838111156109db576000848401525b50505050565b60006109ec82610992565b6109f6818561099d565b9350610a068185602086016109ae565b610a0f8161076c565b840191505092915050565b610a23816108f1565b82525050565b6000606083016000830151610a416000860182610983565b5060208301518482036020860152610a5982826109e1565b9150506040830151610a6e6040860182610a1a565b508091505092915050565b6000610a858383610a29565b905092915050565b6000602082019050919050565b6000610aa582610925565b610aaf8185610930565b935083602082028501610ac185610941565b8060005b85811015610afd5784840389528151610ade8582610a79565b9450610ae983610a8d565b925060208a01995050600181019050610ac5565b50829750879550505050505092915050565b60006020820190508181036000830152610b298184610a9a565b905092915050565b7f4e487b7100000000000000000000000000000000000000000000000000000000600052601160045260246000fd5b6000610b6b826108f1565b9150610b76836108f1565b9250827fffffffffffffffffffffffffffffffffffffffffffffffffffffffffffffffff03821115610bab57610baa610b31565b5b828201905092915050565b600082825260208201905092915050565b6000610bd282610992565b610bdc8185610bb6565b9350610bec8185602086016109ae565b610bf58161076c565b840191505092915050565b6000604082019050610c1560008301856108fb565b8181036020830152610c278184610bc7565b90509392505050565b7f547279696e6720746f207769746864726177206d6f7265206d6f6e657920746860008201527f616e2074686520636f6e7472616374206861732e000000000000000000000000602082015250565b6000610c8c603483610bb6565b9150610c9782610c30565b604082019050919050565b60006020820190508181036000830152610cbb81610c7f565b9050919050565b600081905092915050565b50565b6000610cdd600083610cc2565b9150610ce882610ccd565b600082019050919050565b6000610cfe82610cd0565b9150819050919050565b7f4661696c656420746f207769746864726177206d6f6e65792066726f6d20636f60008201527f6e74726163742e00000000000000000000000000000000000000000000000000602082015250565b6000610d64602783610bb6565b9150610d6f82610d08565b604082019050919050565b60006020820190508181036000830152610d9381610d57565b9050919050565b7f4e487b7100000000000000000000000000000000000000000000000000000000600052602260045260246000fd5b60006002820490506001821680610de157607f821691505b60208210811415610df557610df4610d9a565b5b50919050565b60006020820190508181036000830152610e158184610bc7565b905092915050565b610e2681610971565b82525050565b60006060820190508181036000830152610e468186610bc7565b9050610e556020830185610e1d565b8181036040830152610e678184610bc7565b9050949350505050565b60006040820190508181036000830152610e8b8185610bc7565b9050610e9a60208301846108fb565b939250505056fea2646970667358221220faa78be9a358f08a525fdc8d4990027d88ae274efa993b8ff2c9562be477df7564736f6c63430008090033",
  "linkReferences": {},
  "deployedLinkReferences": {}
}